:100000000C9434000C943E000C943E000C943E0082
:100010000C943E000C943E000C943E000C943E0068
:100020000C943E000C943E000C943E000C943E0058
:100030000C943E000C943E000C943E000C943E0048
:100040000C943E000C943E000C943E000C943E0038
:100050000C943E000C943E000C943E000C943E0028
:100060000C943E000C943E0011241FBECFEFD8E04C
:10007000DEBFCDBF0E948B000C94B0000C9400003A
:10008000549A539A08955C9A2FEF81EE94E0215090
:1000900080409040E1F700C0000008955C982FEF89
:1000A00081EE94E0215080409040E1F700C00000D4
:1000B00008955B9A2FEF81EE94E0215080409040AC
:1000C000E1F700C0000008955B982FEF81EE94E007
:1000D000215080409040E1F700C0000008950E9448
:1000E00043000E9459002FEF81EE94E021508040A0
:1000F0009040E1F700C0000008950E944E000E9469
:1001000064002FEF81EE94E0215080409040E1F7B1
:1001100000C0000008950E94400080E090E0019639
:10012000EFE3FCE93197F1F700C000008436910558
:10013000B1F70E9459002FEF81EE94E021508040EA
:100140009040E1F700C000000E946400EFEFF1EE84
:1001500024E0E150F0402040E1F700C00000DDCF96
:04016000F894FFCF41
:00000001FF
