:100000000C9434000C9446000C9446000C9446006A
:100010000C9446000C9448000C9446000C94460046
:100020000C9446000C9446000C9446000C94460038
:100030000C9446000C9446000C9446000C94460028
:100040000C9446000C9446000C9446000C94460018
:100050000C9446000C9446000C9446000C94460008
:100060000C9446000C94460011241FBECFEFD8E03C
:10007000DEBFCDBF11E0A0E0B1E001C01D92A8300D
:10008000B107E1F70E9498000C9482020C940000E2
:100090001F920F920FB60F9211242F933F934F93FD
:1000A0005F936F937F938F939F93AF93BF93EF93E0
:1000B000FF934E9B0EC05A9A8091040190910501C6
:1000C000892B29F581E090E090930501809304014C
:1000D0001EC088E893E120E931E0F9013197F1F79A
:1000E0000197D9F75A9880910401909105010197E1
:1000F00071F4109205011092040110920301109204
:1001000002010E9474021092010110920001FF91FD
:10011000EF91BF91AF919F918F917F916F915F917F
:100120004F913F912F910F900FBE0F901F901895F8
:10013000EF92FF920F931F93CF93DF93529A5A98A7
:100140005698219A2998809168008460809368006D
:1001500080916D00806480936D0078948091800020
:10016000826880938000809181008B618093810000
:1001700087E893E190938700809386000E9437027E
:1001800082E7E82E81E0F82EC0E9D1E000E811E036
:100190008091040190910501892BD1F7F09289009B
:1001A000E092880018C0809181008D7F809381004B
:1001B0008091020190910301892B31F43093030166
:1001C000209302010E94660280E197E2FE013197CE
:1001D000F1F70197D9F72091040130910501213001
:1001E000310509F38091810083608093810080E173
:1001F00097E2FE013197F1F70197D9F718C0809186
:1002000081008D7F80938100809102019091030194
:10021000892B31F430930301209302010E9466027E
:1002200080E197E2FE013197F1F70197D9F720912C
:100230000401309105012130310509F380918100DD
:1002400083608093810080E197E2FE013197F1F7AE
:100250000197D9F718C0809181008D7F809381002C
:100260008091020190910301892B31F430930301B5
:10027000209302010E94660280E197E2FE0131971D
:10028000F1F70197D9F72091040130910501213050
:10029000310509F38091810083608093810080E1C2
:1002A00097E2FE013197F1F70197D9F718C08091D5
:1002B00081008D7F809381008091020190910301E4
:1002C000892B31F430930301209302010E946602CE
:1002D00080E197E2FE013197F1F70197D9F720917C
:1002E0000401309105012130310509F3809181002D
:1002F00083608093810080E197E2FE013197F1F7FE
:100300000197D9F7109389000093880018C0809155
:1003100081008D7F80938100809102019091030183
:10032000892B31F430930301209302010E9466026D
:1003300080E197E2FE013197F1F70197D9F720911B
:100340000401309105012130310509F380918100CC
:1003500083608093810080E197E2FE013197F1F79D
:100360000197D9F718C0809181008D7F809381001B
:100370008091020190910301892B31F430930301A4
:10038000209302010E94660280E197E2FE0131970C
:10039000F1F70197D9F7209104013091050121303F
:1003A000310509F38091810083608093810080E1B1
:1003B00097E2FE013197F1F70197D9F718C08091C4
:1003C00081008D7F809381008091020190910301D3
:1003D000892B31F430930301209302010E946602BD
:1003E00080E197E2FE013197F1F70197D9F720916B
:1003F0000401309105012130310509F3809181001C
:1004000083608093810080E197E2FE013197F1F7EC
:100410000197D9F718C0809181008D7F809381006A
:100420008091020190910301892B31F430930301F3
:10043000209302010E94660280E197E2FE0131975B
:10044000F1F70197D9F7209104013091050121308E
:10045000310509F38091810083608093810080E100
:1004600097E2FE013197F1F70197D9F791CE549AAF
:10047000539A08955C9A2FEF81EE94E021508040CA
:100480009040E1F700C0000008955C982FEF81EEE6
:1004900094E0215080409040E1F700C000000895B2
:1004A0005B9A2FEF81EE94E0215080409040E1F77D
:1004B00000C0000008955B982FEF81EE94E021507A
:1004C00080409040E1F700C0000008950E943A0289
:1004D0000E9450022FEF81EE94E021508040904026
:1004E000E1F700C0000008950E9445020E945B02EF
:1004F0002FEF81EE94E0215080409040E1F700C062
:0805000000000895F894FFCFFC
:00000001FF
